:020000040000FA
:1000000000000E288207C034F934A434B034993487
:1000100092348234F834803498348E34FF3088003F
:1000200087008316031388010F3085000F30870087
:100030008316031306309F008301FF3085002320C1
:100040005C2076201F28A101A201EF30870000006C
:1000500007080F390F3A031932280708A0000030AB
:10006000A1005B28DF308700000007080F390F3A36
:1000700003193F280708A0000430A1005B28BF3007
:100080008700000007080F390F3A03194C280708AA
:10009000A0000830A1005B287F308700000007081F
:1000A0000F390F3A031959280708A0000C30A10096
:1000B0005B28FF30A1000800A201A01D6628201DBA
:1000C0006928A01C6C28201C6F2871280030A20011
:1000D00071280130A20071280230A200712803307B
:1000E000A2002108A207A101A0010800A401A40AFE
:1000F000A301FF302206031988282208A3000A3032
:100100002202031C8B280A302202A300A40A8B2897
:100110000A30A300A40024080220880005129820B9
:1001200005162308022088008512982085160800ED
:100130000F30B000FF30B100B10B9C28B00B9A28F3
:020140000800B5
:02400E00321866
:00000001FF
