:020000040000FA
:0400000000000528CF
:06000A008316031307300A
:100010009F00831603138501FF3086008101830151
:10002000B001033085006620061819280030B000A2
:10003000232886181E280130B000232806192328FB
:100040000230B000232830080319142803300506B5
:10005000031D362801303002031D3228063085008A
:10006000662014280930850066201428063005060D
:10007000031D462801303002031D42280C30850044
:100080006620142803308500662014280C300506ED
:10009000031D562801303002031D52280930850007
:1000A00066201428063085006620142809300506CD
:1000B000031D142801303002031D6228033085001F
:1000C000662014280C308500662014280F08A10033
:0E00D000FF30A200A20B6A28A10B68280800CE
:02400E00321866
:00000001FF
