:0C000000830100308A0004288301B32F24
:100F6600B627D22704288316031385018601831228
:100F7600080088308301A1001330A20000000000A1
:100F8600A1080319A203A1032208803AF0008030C9
:100F96007002013003192102031C0800C12F013021
:100FA60083018500BC27BC27BC2702308500BC27EF
:100FB600BC27BC2704308500BC27BC27BC270830CB
:100FC6008500BC27BC27BC27403085000230A00026
:100FD600BC27BC27BC270310850DA00BEB2F850172
:100FE600013086000830A000BC27BC27BC270310B0
:0A0FF600860DA00BF72F8601D22F05
:02400E00383F39
:00000001FF
