:020000040000fa
:080000000001040000000000f3
:020000040000fa
:04000800c80100002b
:020000040000fa
:04000c00c801000027
:020000040000fa
:04001000c801000023
:020000040000fa
:04001400c80100001f
:020000040000fa
:04001800c80100001b
:020000040000fa
:04001c00c801000017
:020000040000fa
:04002000c801000013
:020000040000fa
:04002400c80100000f
:020000040000fa
:04002800c80100000b
:020000040000fa
:04002c00c801000007
:020000040000fa
:04003000c801000003
:020000040000fa
:04003400c8010000ff
:020000040000fa
:04003800c8010000fb
:020000040000fa
:04003c00c8010000f7
:020000040000fa
:04004000c8010000f3
:020000040000fa
:04004400c8010000ef
:020000040000fa
:04004800c8010000eb
:020000040000fa
:04004c00c8010000e7
:020000040000fa
:04005000c8010000e3
:020000040000fa
:04005400c8010000df
:020000040000fa
:04005800c8010000db
:020000040000fa
:04005c00c8010000d7
:020000040000fa
:04006000c8010000d3
:020000040000fa
:04006400c8010000cf
:020000040000fa
:04006800c8010000cb
:020000040000fa
:04006c00c8010000c7
:020000040000fa
:04007000c8010000c3
:020000040000fa
:04007400c8010000bf
:020000040000fa
:04007800c8010000bb
:020000040000fa
:04007c00c8010000b7
:020000040000fa
:04008000c8010000b3
:020000040000fa
:04008400c8010000af
:020000040000fa
:04008800c8010000ab
:020000040000fa
:04008c00c8010000a7
:020000040000fa
:04009000c8010000a3
:020000040000fa
:04009400c80100009f
:020000040000fa
:04009800c80100009b
:020000040000fa
:04009c00c801000097
:020000040000fa
:0400a000c801000093
:020000040000fa
:0400a400c80100008f
:020000040000fa
:0400a800c80100008b
:020000040000fa
:0400ac00c801000087
:020000040000fa
:0400b000c801000083
:020000040000fa
:0400b400c80100007f
:020000040000fa
:0400b800c80100007b
:020000040000fa
:0400bc00c801000077
:020000040000fa
:0400c000c801000073
:020000040000fa
:0400c400c80100006f
:020000040000fa
:0400c800c80100006b
:020000040000fa
:0400cc00c801000067
:020000040000fa
:0400d000c801000063
:020000040000fa
:0400d400c80100005f
:020000040000fa
:0400d800c80100005b
:020000040000fa
:04010800c80100002a
:020000040000fa
:04010c00c801000026
:020000040000fa
:04011000c801000022
:020000040000fa
:04011400c80100001e
:020000040000fa
:04011800c80100001a
:020000040000fa
:04011c00c801000016
:020000040000fa
:04012000c801000012
:020000040000fa
:04012400c80100000e
:020000040000fa
:04012800c80100000a
:020000040000fa
:04012c00c801000006
:020000040000fa
:04013000c801000002
:020000040000fa
:04013400c8010000fe
:020000040000fa
:04013800c8010000fa
:020000040000fa
:04013c00c8010000f6
:020000040000fa
:04014000c8010000f2
:020000040000fa
:04014400c8010000ee
:020000040000fa
:04014800c8010000ea
:020000040000fa
:04014c00c8010000e6
:020000040000fa
:04015000c8010000e2
:020000040000fa
:04015400c8010000de
:020000040000fa
:04015800c8010000da
:020000040000fa
:04015c00c8010000d6
:020000040000fa
:04016000c8010000d2
:020000040000fa
:04016400c8010000ce
:020000040000fa
:04016800c8010000ca
:020000040000fa
:04016c00c8010000c6
:020000040000fa
:04017000c8010000c2
:020000040000fa
:04017400c8010000be
:020000040000fa
:04017800c8010000ba
:020000040000fa
:04017c00c8010000b6
:020000040000fa
:04018000c8010000b2
:020000040000fa
:04018400c8010000ae
:020000040000fa
:04018800c8010000aa
:020000040000fa
:04018c00c8010000a6
:020000040000fa
:04019000c8010000a2
:020000040000fa
:04019400c80100009e
:020000040000fa
:04019800c80100009a
:020000040000fa
:04019c00c801000096
:020000040000fa
:0401a000c801000092
:020000040000fa
:0401a400c80100008e
:020000040000fa
:0401a800c80100008a
:020000040000fa
:0401ac00c801000086
:020000040000fa
:0401b000c801000082
:020000040000fa
:0401b400c80100007e
:020000040000fa
:0401b800c80100007a
:020000040000fa
:0401bc00c801000076
:020000040000fa
:0401c000c801000072
:020000040000fa
:0401c400c80100006e
:020000040000fa
:0401c800c80100006a
:020000040000fa
:0401cc00c801000066
:020000040000fa
:0401d000c801000062
:020000040000fa
:0401d400c80100005e
:020000040000fa
:0401d800c80100005a
:020000040000fa
:100200002f8020000eff20000e018800000000005b
:10021000000020000000e000020032000001200089
:1002200020028800140007005b0007000000e000c7
:1002300003003a0020e821000100200002003700fe
:100240000000200001002000810f7000010032003a
:1002500014000700000020000000e000020032004f
:100260000000020000000000081d02000000000065
:100270000040da000000fe004440a9000083210095
:100280000000e0000300320000002000a001880010
:100290004440a800000006008a1f78008b1f7800e9
:1002a0000000060091018800800478000000eb0047
:1002b0001a003700e284440032a0b4009905ba0065
:1002c000e284440032a0b4009906ba00e2844400fb
:1002d00032a0b4000006eb00476fde00fd07b2005d
:1002e000636ce10003003a00ebff07000000eb0045
:1002f0000a003700606ce10004003a00005deb008a
:100300008b05e900fdff3e00040037006168e10055
:10031000010032000086eb000b00070019c7ba008d
:100320001905ba000e04e00003003a000a00e000dc
:10033000e0ff3a0000000600fe07b2009e018800c0
:100340008a047800f5ff3700395dba008b05e900b3
:100350000c003200295dba008b05e900080032006c
:100360000c00e00003003a00e284440032a0b40034
:10037000f5ff370019ddba008b05e900faff3a00f6
:100380008904e800e184440032a0b40000000600c3
:0c0390000040da000000fe000000050044
:020000040000fa
:10039c000000000000000000000000000000000051
:1003ac00002f00000000000000000000070000000b
:1003bc0007000000001400007f1400007f140000f0
:1003cc00002400002a7f00002a12000000620000b6
:1003dc00640800001323000000360000495500009b
:1003ec002250000000000000050300000000000087
:1003fc00000000001c220000410000000000000072
:10040c00412200001c00000000140000083e000007
:10041c000814000000080000083e00000808000056
:10042c000000000000a000006000000000080000b8
:10043c0008080000080800000000000060600000d0
:10044c000000000000200000100800000402000062
:10045c00003e000051490000453e00000000000035
:10046c00427f00004000000000420000615100008b
:10047c004946000000210000414500004b310000be
:10048c0000180000141200007f100000002700006c
:10049c004545000045390000003c00004a49000079
:1004ac004930000000010000710900000503000044
:1004bc0000360000494900004936000000060000e3
:1004cc0049490000291e00000000000036360000db
:1004dc000000000000000000563600000000000084
:1004ec00000800001422000041000000001400006d
:1004fc00141400001414000000000000412200003d
:10050c001408000000020000015100000906000060
:10051c000032000049590000513e0000007c0000f0
:10052c0012110000127c0000007f000049490000fd
:10053c0049360000003e000041410000412200000d
:10054c00007f000041410000221c0000007f0000e1
:10055c004949000049410000007f000009090000e2
:10056c0009010000003e000041490000497a0000ea
:10057c00007f000008080000087f00000000000059
:10058c00417f0000410000000020000040410000bd
:10059c003f010000007f0000081400002241000011
:1005ac00007f00004040000040400000007f000041
:1005bc00020c0000027f0000007f00000408000015
:1005cc00107f0000003e000041410000413e000051
:1005dc00007f00000909000009060000003e000031
:1005ec0041510000215e0000007f0000091900004d
:1005fc00294600000046000049490000493100002e
:10060c0000010000017f000001010000003f00001c
:10061c0040400000403f0000001f00002040000050
:10062c00201f0000003f000040380000403f000049
:10063c0000630000140800001463000000070000b1
:10064c00087000000807000000610000514900001c
:10065c0045430000000000007f4100004100000005
:10066c00005500002a5500002a550000000000002b
:10067c00414100007f000000000400000201000066
:10068c000204000000400000404000004040000018
:10069c000000000001020000040000000020000027
:1006ac005454000054780000007f000048440000bf
:1006bc00443800000038000044440000442000008e
:1006cc000038000044440000487f0000003800005f
:1006dc005454000054180000000800007e0900006b
:1006ec000102000000180000a4a40000a47c00007b
:1006fc00007f0000080400000478000000000000e7
:10070c00447d000040000000004000008084000098
:10071c007d000000007f0000102800004400000055
:10072c0000000000417f000040000000007c000041
:10073c000418000004780000007c0000080400008d
:10074c0004780000003800004444000044380000e5
:10075c0000fc0000242400002418000000180000f5
:10076c002424000018fc0000007c00000804000099
:10077c0004080000004800005454000054200000fd
:10078c00000400003f44000040200000003c00003a
:10079c0040400000207c0000001c000020400000b5
:1007ac00201c0000003c000040300000403c0000d9
:1007bc00004400002810000028440000001c000029
:1007cc00a0a00000a07c00000044000064540000c5
:1007dc004c44000014140000141400001414000005
:1007ec000000000007f000000808000010040000e2
:1007fc00100400000808000007f0000000000000d2
:10080c000000000008040000080400001ffc0000a9
:10081c0000040000000400000000000000000000c4
:10082c00000000000e0c000010140000102400004a
:10083c0010440000118400000e0c000000000000a9
:10084c00000000000c18000010040000110400004f
:10085c0011040000128800000c7000000000000061
:10086c000000000000e00000032000000424000051
:10087c00082400001ffc0000002400000000000001
:10088c00000000001f9800001084000011040000fc
:10089c00110400001088000010700000000000001f
:1008ac000000000007f000000888000011040000a0
:1008bc001104000018880000007000000000000007
:1008cc00000000001c0000001000000010fc0000e4
:1008dc00130000001c0000001000000000000000cd
:1008ec00000000000e3800001144000010840000cd
:1008fc0010840000114400000e38000000000000bd
:10090c000000000007000000088c000010440000ec
:10091c00104400000888000007f0000000000000f0
:10092c0000000000000000000000000000000000bb
:10093c0000000000000000000000000000000000ab
:10094c000000000000000000000000001fcc0000b0
:10095c00000c00000000000000000000000000007f
:10096c0000000000080000003000000060000000e3
:10097c0008000000300000006000000000000000d3
:10098c000220000003fc00001e20000002200000da
:10099c0003fc00001e2000000220000000000000ec
:1009ac00000000000e180000110400003fff0000c2
:1009bc00108400000c780000000000000000000013
:1009cc000f000000108400000f38000000c0000071
:1009dc000778000018840000007800000000000078
:1009ec00007800000f84000010c4000011240000e7
:1009fc000e98000000e400000084000000080000d5
:100a0c0008000000680000007000000000000000fa
:100a1c0000000000000000000000000000000000ca
:100a2c0000000000000000000000000007e00000d3
:100a3c001818000020040000400200000000000014
:100a4c000000000040020000200400001818000004
:100a5c0007e00000000000000000000000000000a3
:100a6c000240000002400000018000000ff0000076
:100a7c000180000002400000024000000000000065
:100a8c000080000000800000008000000ff80000d3
:100a9c0000800000008000000080000000000000ca
:100aac0000010000000d0000000e0000000000001e
:100abc00000000000000000000000000000000002a
:100acc00000000000080000000800000008000009a
:100adc00008000000080000000800000008000000a
:100aec0000000000000c0000000c000000000000e2
:100afc0000000000000000000000000000000000ea
:100b0c00000000000006000000180000006000005b
:100b1c00018000000600000018000000200000000a
:100b2c00000000000000000000000000030c0000aa
:100b3c00030c00000000000000000000000000009a
:100b4c000000000000000000000100000106000091
:100b5c000000000000000000000000000000000089
:100b6c000000000000800000014000000220000096
:100b7c000410000008080000100400000000000031
:100b8c0002200000022000000220000002200000d1
:100b9c0002200000022000000220000000000000e3
:100bac000000000010040000080800000410000001
:100bbc000220000001400000008000000000000046
:100bcc00000000000e00000012000000100c0000dd
:100bdc00106c0000108000000f00000000000000ee
:100bec0003e000000c18000013e4000014240000c3
:100bfc0017c400000828000007d000000000000007
:100c0c0000040000003c000003c400001c40000075
:100c1c000740000000e40000001c0000000400007d
:100c2c00100400001ffc000011040000110400005f
:100c3c00110400000e88000000700000000000008d
:100c4c0003e000000c180000100400001004000069
:100c5c0010040000100800001c1000000000000030
:100c6c00100400001ffc0000100400001004000021
:100c7c00100400000808000007f00000000000004d
:100c8c00100400001ffc00001104000011040000ff
:100c9c0017c4000010040000081800000000000039
:100cac00100400001ffc00001104000011000000e3
:100cbc0017c0000010000000080000000000000039
:100ccc0003e000000c1800001004000010040000e9
:100cdc00104400001c7800000040000000000000e0
:100cec00100400001ffc00001084000000800000b5
:100cfc0000800000108400001ffc000010040000a5
:100d0c000000000010040000100400001ffc000094
:100d1c00100400001004000000000000000000009f
:100d2c000003000000010000100100001001000091
:100d3c001ffe00001000000010000000000000006a
:100d4c00100400001ffc00001104000003800000d0
:100d5c0014640000181c00001004000000000000c7
:100d6c00100400001ffc0000100400000004000030
:100d7c000004000000040000000c00000000000053
:100d8c00100400001ffc00001f00000000fc00000d
:100d9c001f0000001ffc00001004000000000000f9
:100dac00100400001ffc00000c04000003000000f5
:100dbc0000e00000101800001ffc000010000000f4
:100dcc0007f00000080800001004000010040000e8
:100ddc00100400000808000007f0000000000000ec
:100dec00100400001ffc00001084000010800000a4
:100dfc0010800000108000000f00000000000000b8
:100e0c0007f0000008180000102400001024000057
:100e1c00101c0000080a000007f20000000000008f
:100e2c00100400001ffc0000110400001100000061
:100e3c0011c00000113000000e0c00000004000076
:100e4c00000000000e1c00001104000010840000c3
:100e5c0010840000104400001c380000000000004a
:100e6c001800000010000000100400001ffc00001f
:100e7c00100400001000000018000000000000002a
:100e8c00100000001ff80000100400000004000017
:100e9c0000040000100400001ff800001000000007
:100eac00100000001e00000011e00000001c0000fb
:100ebc0000700000138000001c00000010000000f7
:100ecc001fc00000103c000000e000001f000000ec
:100edc0000e00000103c00001fc0000000000000fb
:100eec0010040000180c00001634000001c00000b3
:100efc0001c0000016340000180c000010040000a3
:100f0c00100000001c0000001304000000fc000096
:100f1c00130400001c000000100000000000000082
:100f2c0008040000101c0000106400001084000075
:100f3c00130400001c040000101800000000000046
:100f4c000000000000000000000000007ffe000018
:100f5c0040020000400200004002000000000000bf
:100f6c0000000000300000000c00000003800000b6
:100f7c0000600000001c00000003000000000000e6
:100f8c00000000004002000040020000400200008f
:100f9c007ffe0000000000000000000000000000c8
:100fac0000000000000000002000000040000000d5
:100fbc004000000040000000200000000000000085
:100fcc000001000000010000000100000001000011
:100fdc000001000000010000000100000001000001
:100fec000000000040000000400000002000000055
:100ffc0000000000000000000000000000000000e5
:10100c0000000000009800000124000001440000d2
:10101c00014400000144000000fc0000000400003a
:10102c00100000001ffc00000088000001040000fc
:10103c0001040000008800000070000000000000a7
:10104c000000000000700000008800000104000097
:10105c0001040000010400000088000000000000f2
:10106c000000000000700000008800000104000077
:10107c0001040000110800001ffc00000004000027
:10108c000000000000f800000144000001440000d2
:10109c00014400000144000000c8000000000000f2
:1010ac000000000001040000010400000ffc00001f
:1010bc0011040000110400001100000018000000d1
:1010cc000000000000d600000129000001290000ea
:1010dc000129000001c90000010600000000000009
:1010ec00100400001ffc0000008400000100000040
:1010fc00010000000104000000fc000000040000de
:10110c0000000000010400001904000019fc00009c
:10111c0000040000000400000000000000000000bb
:10112c0000000000000300000001000001010000ad
:10113c001901000019fe0000000000000000000072
:10114c00100400001ffc0000002400000040000000
:10115c0001b40000010c00000104000000000000bc
:10116c000000000010040000100400001ffc000030
:10117c00000400000004000000000000000000005b
:10118c000104000001fc000001040000010000004b
:10119c0001fc0000010400000100000000fc000044
:1011ac000104000001fc00000084000001000000ac
:1011bc00010000000104000000fc0000000400001d
:1011cc000000000000f80000010400000104000011
:1011dc00010400000104000000f800000000000001
:1011ec000101000001ff0000008500000104000067
:1011fc0001040000008800000070000000000000e6
:10120c0000000000007000000088000001040000d5
:10121c00010400000105000001ff000000010000b6
:10122c00010400000104000001fc00000084000027
:10123c00010400000100000001800000000000001b
:10124c000000000000cc000001240000012400007c
:10125c00012400000124000001980000000000009f
:10126c0000000000010000000100000007f8000071
:10127c000104000001040000000000000000000058
:10128c000100000001f80000000400000004000050
:10129c00000400000108000001fc00000004000034
:1012ac00010000000180000001700000000c000033
:1012bc00001000000160000001800000010000002f
:1012cc0001f00000010c00000030000001c0000023
:1012dc0000300000010c000001f0000001000000d3
:1012ec000000000001040000018c000000740000ec
:1012fc0001700000018c00000104000000000000df
:10130c00010100000181000001710000000e0000cd
:10131c0000180000016000000180000001000000c6
:10132c000000000001840000010c000001340000ea
:10133c000144000001840000010c000000000000ca
:10134c000000000000000000000000000000000091
:10135c00010000003efc00004002000040020000c2
:10136c000000000000000000000000000000000071
:10137c00ffff000000000000000000000000000063
:10138c000000000040020000400200003efc000093
:10139c000100000000000000000000000000000040
:1013ac0000000000600000008000000080000000d1
:1013bc004000000040000000200000002000000061
:1013cc000000000000000000000000000000000011
:1013dc000000000000000000000000000000000001
:1013ec0000000000000000000000000000000000f1
:1013fc0000000000000000000000000000000000e1
:10140c0000000000000000000000000000000000d0
:10141c0000000000000000000000000000000000c0
:10142c0000000000000000000000000000000000b0
:10143c0000000000000000000000000000000000a0
:10144c000000000000000000000000000000000090
:10145c000000000000000000000000000000000080
:10146c000000000000000000000000000000000070
:10147c000000000000000000000000000000000060
:10148c000000000000000000000000000000000050
:10149c000000000000000000000000000000000040
:1014ac000000000000000000000000000000000030
:1014bc000000000000000000000000000000000020
:1014cc000000000000000000000000000000000010
:1014dc000000000000000000000000000000000000
:1014ec0000000000000000000000000000000000f0
:1014fc0000000000000000000000000000000000e0
:10150c0000000000000000000000000000000000cf
:10151c0000000000000000000000000000000000bf
:10152c00000000000000000000000000008000002f
:10153c00808000000080000080000000000000009f
:10154c00000000000000000000000000000000008f
:10155c00000000000000000000000000000000007f
:10156c00000000000000000000000000000000006f
:10157c00000000008080000080800000808000005f
:10158c00000000000000000000000000000000004f
:10159c00000000000000000000000000000000003f
:1015ac00000000000000000000000000000000002f
:1015bc00000000000000000000000000000000001f
:1015cc00000000000000000000000000000000000f
:1015dc0000000000000000007c86000082820000f9
:1015ec00c64c00000000000000fe000006020000d7
:1015fc0004fe0000040000000000000082fe000059
:10160c00c28000008000000000000000008200008a
:10161c00fefe0000020000000000000082fe000040
:10162c008280000082fe00000200000000610000c9
:10163c00ff14000094f40000e70300000000000019
:10164c00000000000000000000000000000000008e
:10165c000000000002fe0000060200000000000076
:10166c000000000000820000fe02000000000000ec
:10167c0000000000e7fe000014940000f487000056
:10168c000000000000fe0000c280000080fe000090
:10169c007e0000000000000000fe0000860200003a
:1016ac00040000000000000000000000000000002a
:1016bc00000000000000000000000000000000001e
:1016cc00000000000000000000000000000000000e
:1016dc0000000000000000000000000000000000fe
:1016ec0000000000000000000000000000000000ee
:1016fc0000000000000000000000000000000000de
:10170c0000000000000000000000000000000000cd
:10171c000c0d0000000000000000000000000000a4
:10172c0000000000000000000000000000000000ad
:10173c00000100000100000000000000000000009b
:10174c00000000000000000000000000000000008d
:10175c0000000000040f000000000000000000006a
:10176c0000000000000c00000d0000000000000054
:10177c00000000000000000001010000000000005b
:10178c0000000000000f000000000000000000003e
:10179c000000000000000000000300000100000039
:1017ac00000000000000000000000000000000002d
:1017bc00000000000000000000000000000000001d
:1017cc00000000000000000000100000f0f000001d
:1017dc0010000000000000000000000010f00000ed
:1017ec00101000000000000000e00000f0100000ed
:1017fc0010100000fc0000000000000000f00000d1
:10180c001010000030f0000010000000000000007c
:10181c0010f00000101000000000000000e00000bc
:10182c00f010000010300000f0100000000000006c
:10183c00000000000000000000000000000000009c
:10184c0000e00000301000001030000060000000cc
:10185c000000000010f0000010100000000000005c
:10186c000000000004860000e4780000c0000000c6
:10187c00000000000000000030900000d0f00000dc
:10188c00200000000000000000f00000f01000003c
:10189c00100000000000000070d0000090b00000ac
:1018ac00f0100000000000000000000010f000002c
:1018bc00f01000000000000000000000000000001c
:1018cc000000000000000000002000003f3f00006e
:1018dc000000000000000000000000000467000091
:1018ec006000000000000000000100000704000080
:1018fc0000040000070000000000000004070000c6
:10190c0000000000040700000000000000000000c0
:10191c0004670000600000000000000000030000ed
:10192c0007040000202400007f00000000000000dd
:10193c00000000000000000000000000000000009b
:10194c000003000004040000040600000200000074
:10195c000000000004070000070400000400000061
:10196c000000000004070000050000000506000050
:10197c000400000000000000070100000406000045
:10198c000000000000000000000f00001f0000001d
:10199c00000000000000000002060000000500002e
:1019ac00070000000000000000000000203f0000c5
:1019bc003f000000000000000000000000000000dc
:1019cc00000000000000000000000000000000000b
:1019dc0000000000000000000000000000000000fb
:1019ec0000200000e02000000000000020e00000cb
:1019fc0020200000c000000020200000000000009b
:101a0c000000000000f0000020200000c0000000da
:101a1c00e020000020e0000020000000002000007a
:101a2c00e02000000000000000e0000020000000aa
:101a3c0000000000c06000002020000040000000fa
:101a4c0020e0000000200000e000000018f800007a
:101a5c00a0a800003000000000600000e0200000a2
:101a6c00000000000020000020c00000000000006a
:101a7c000020000020600000c000000000e000001a
:101a8c0020600000c000000000600000e0200000aa
:101a9c0000000000002000002040000000000000ba
:101aac00000000000000000000000000000000002a
:101abc00000000000000000000000000000000001a
:101acc00000000000000000000000000000000000a
:101adc0000000000000000000000000000000000fa
:101aec00000800000f08000000000000000f0000bc
:101afc0008080000070000000202000000000000bf
:101b0c0000000000000300000202000003000000bf
:101b1c0001020000020300000000000000000000b1
:101b2c001b00000000000000020f0000121000005b
:101b3c000800000001030000010300000100000088
:101b4c00020300000202000001000000010300007b
:101b5c00020300000200000000080000110f00004a
:101b6c0000000000000e00000a0b00000000000046
:101b7c0000100000121f0000010000000007000010
:101b8c000a1300000100000000080000110f000003
:101b9c0000000000000e00000a0b00000000000016
:101bac000000000000000000000000000000000029
:101bbc000000000000000000000000000000000019
:101bcc000000000000000000000000000000000009
:101bdc00002f0000000000000000000007000000c3
:101bec0007000000001400007f1400007f140000a8
:101bfc00002400002a7f00002a120000006200006e
:101c0c006408000013230000003600004955000052
:101c1c00225000000000000005030000000000003e
:101c2c00000000001c220000410000000000000029
:101c3c00412200001c00000000140000083e0000bf
:101c4c000814000000080000083e0000080800000e
:101c5c000000000000a00000600000000008000070
:101c6c000808000008080000000000006060000088
:101c7c00000000000020000010080000040200001a
:101c8c00003e000051490000453e000000000000ed
:101c9c00427f000040000000004200006151000043
:101cac004946000000210000414500004b31000076
:101cbc0000180000141200007f1000000027000024
:101ccc004545000045390000003c00004a49000031
:101cdc0049300000000100007109000005030000fc
:101cec00003600004949000049360000000600009b
:101cfc0049490000291e0000000000003636000093
:101d0c00000000000000000056360000000000003b
:101d1c000008000014220000410000000014000024
:101d2c0014140000141400000000000041220000f4
:101d3c001408000000020000015100000906000018
:101d4c000032000049590000513e0000007c0000a8
:101d5c0012110000127c0000007f000049490000b5
:101d6c0049360000003e00004141000041220000c5
:101d7c00007f000041410000221c0000007f000099
:101d8c004949000049410000007f0000090900009a
:101d9c0009010000003e000041490000497a0000a2
:101dac00007f000008080000087f00000000000011
:101dbc00417f000041000000002000004041000075
:101dcc003f010000007f00000814000022410000c9
:101ddc00007f00004040000040400000007f0000f9
:101dec00020c0000027f0000007f000004080000cd
:101dfc00107f0000003e000041410000413e000009
:101e0c00007f00000909000009060000003e0000e8
:101e1c0041510000215e0000007f00000919000004
:101e2c0029460000004600004949000049310000e5
:101e3c0000010000017f000001010000003f0000d4
:101e4c0040400000403f0000001f00002040000008
:101e5c00201f0000003f000040380000403f000001
:101e6c000063000014080000146300000007000069
:101e7c0008700000080700000061000051490000d4
:101e8c0045430000000000007f41000041000000bd
:101e9c00005500002a5500002a55000000000000e3
:101eac00414100007f00000000040000020100001e
:101ebc0002040000004000004040000040400000d0
:101ecc0000000000010200000400000000200000df
:101edc005454000054780000007f00004844000077
:101eec004438000000380000444400004420000046
:101efc000038000044440000487f00000038000017
:101f0c005454000054180000000800007e09000022
:101f1c000102000000180000a4a40000a47c000032
:101f2c00007f00000804000004780000000000009e
:101f3c00447d000040000000004000008084000050
:101f4c007d000000007f000010280000440000000d
:101f5c0000000000417f000040000000007c0000f9
:101f6c000418000004780000007c00000804000045
:101f7c00047800000038000044440000443800009d
:101f8c0000fc0000242400002418000000180000ad
:101f9c002424000018fc0000007c00000804000051
:101fac0004080000004800005454000054200000b5
:101fbc00000400003f44000040200000003c0000f2
:101fcc0040400000207c0000001c0000204000006d
:101fdc00201c0000003c000040300000403c000091
:101fec00004400002810000028440000001c0000e1
:101ffc00a0a00000a07c000000440000645400007d
:10200c004c440000141400001414000014140000bc
:10201c000000000007f00000080800001004000099
:10202c00100400000808000007f000000000000089
:10203c000000000008040000080400001ffc000061
:10204c00000400000004000000000000000000007c
:10205c00000000000e0c0000101400001024000002
:10206c0010440000118400000e0c00000000000061
:10207c00000000000c180000100400001104000007
:10208c0011040000128800000c7000000000000019
:10209c000000000000e00000032000000424000009
:1020ac00082400001ffc00000024000000000000b9
:1020bc00000000001f9800001084000011040000b4
:1020cc0011040000108800001070000000000000d7
:1020dc000000000007f00000088800001104000058
:1020ec0011040000188800000070000000000000bf
:1020fc00000000001c0000001000000010fc00009c
:10210c00130000001c000000100000000000000084
:10211c00000000000e380000114400001084000084
:10212c0010840000114400000e3800000000000074
:10213c000000000007000000088c000010440000a4
:10214c00104400000888000007f0000000000000a8
:10215c000000000000000000000000000000000073
:10216c000000000000000000000000000000000063
:10217c000000000000000000000000001fcc000068
:10218c00000c000000000000000000000000000037
:10219c00000000000800000030000000600000009b
:1021ac00080000003000000060000000000000008b
:1021bc000220000003fc00001e2000000220000092
:1021cc0003fc00001e2000000220000000000000a4
:1021dc00000000000e180000110400003fff00007a
:1021ec00108400000c7800000000000000000000cb
:1021fc000f000000108400000f38000000c0000029
:10220c00077800001884000000780000000000002f
:10221c00007800000f84000010c40000112400009e
:10222c000e98000000e4000000840000000800008c
:10223c0008000000680000007000000000000000b2
:10224c000000000000000000000000000000000082
:10225c0000000000000000000000000007e000008b
:10226c0018180000200400004002000000000000cc
:10227c0000000000400200002004000018180000bc
:10228c0007e000000000000000000000000000005b
:10229c000240000002400000018000000ff000002e
:1022ac00018000000240000002400000000000001d
:1022bc000080000000800000008000000ff800008b
:1022cc000080000000800000008000000000000082
:1022dc0000010000000d0000000e000000000000d6
:1022ec0000000000000000000000000000000000e2
:1022fc000000000000800000008000000080000052
:10230c0000800000008000000080000000800000c1
:10231c0000000000000c0000000c00000000000099
:10232c0000000000000000000000000000000000a1
:10233c000000000000060000001800000060000013
:10234c0001800000060000001800000020000000c2
:10235c00000000000000000000000000030c000062
:10236c00030c000000000000000000000000000052
:10237c000000000000000000000100000106000049
:10238c000000000000000000000000000000000041
:10239c00000000000080000001400000022000004e
:1023ac0004100000080800001004000000000000e9
:1023bc000220000002200000022000000220000089
:1023cc00022000000220000002200000000000009b
:1023dc0000000000100400000808000004100000b9
:1023ec0002200000014000000080000000000000fe
:1023fc00000000000e00000012000000100c000095
:10240c00106c0000108000000f00000000000000a5
:10241c0003e000000c18000013e40000142400007a
:10242c0017c400000828000007d0000000000000be
:10243c0000040000003c000003c400001c4000002d
:10244c000740000000e40000001c00000004000035
:10245c00100400001ffc0000110400001104000017
:10246c00110400000e880000007000000000000045
:10247c0003e000000c180000100400001004000021
:10248c0010040000100800001c10000000000000e8
:10249c00100400001ffc00001004000010040000d9
:1024ac00100400000808000007f000000000000005
:1024bc00100400001ffc00001104000011040000b7
:1024cc0017c40000100400000818000000000000f1
:1024dc00100400001ffc000011040000110000009b
:1024ec0017c00000100000000800000000000000f1
:1024fc0003e000000c1800001004000010040000a1
:10250c00104400001c780000004000000000000097
:10251c00100400001ffc000010840000008000006c
:10252c0000800000108400001ffc0000100400005c
:10253c000000000010040000100400001ffc00004c
:10254c001004000010040000000000000000000057
:10255c000003000000010000100100001001000049
:10256c001ffe000010000000100000000000000022
:10257c00100400001ffc0000110400000380000088
:10258c0014640000181c000010040000000000007f
:10259c00100400001ffc00001004000000040000e8
:1025ac000004000000040000000c0000000000000b
:1025bc00100400001ffc00001f00000000fc0000c5
:1025cc001f0000001ffc00001004000000000000b1
:1025dc00100400001ffc00000c04000003000000ad
:1025ec0000e00000101800001ffc000010000000ac
:1025fc0007f00000080800001004000010040000a0
:10260c00100400000808000007f0000000000000a3
:10261c00100400001ffc000010840000108000005b
:10262c0010800000108000000f000000000000006f
:10263c0007f000000818000010240000102400000f
:10264c00101c0000080a000007f200000000000047
:10265c00100400001ffc0000110400001100000019
:10266c0011c00000113000000e0c0000000400002e
:10267c00000000000e1c000011040000108400007b
:10268c0010840000104400001c3800000000000002
:10269c001800000010000000100400001ffc0000d7
:1026ac0010040000100000001800000000000000e2
:1026bc00100000001ff800001004000000040000cf
:1026cc0000040000100400001ff8000010000000bf
:1026dc00100000001e00000011e00000001c0000b3
:1026ec0000700000138000001c00000010000000af
:1026fc001fc00000103c000000e000001f000000a4
:10270c0000e00000103c00001fc0000000000000b2
:10271c0010040000180c00001634000001c000006a
:10272c0001c0000016340000180c0000100400005a
:10273c00100000001c0000001304000000fc00004e
:10274c00130400001c00000010000000000000003a
:10275c0008040000101c000010640000108400002d
:10276c00130400001c0400001018000000000000fe
:10277c000000000000000000000000007ffe0000d0
:10278c004002000040020000400200000000000077
:10279c0000000000300000000c000000038000006e
:1027ac0000600000001c000000030000000000009e
:1027bc000000000040020000400200004002000047
:1027cc007ffe000000000000000000000000000080
:1027dc00000000000000000020000000400000008d
:1027ec00400000004000000020000000000000003d
:1027fc0000010000000100000001000000010000c9
:10280c0000010000000100000001000000010000b8
:10281c00000000004000000040000000200000000c
:10282c00000000000000000000000000000000009c
:10283c00000000000098000001240000014400008a
:10284c00014400000144000000fc000000040000f2
:10285c00100000001ffc00000088000001040000b4
:10286c00010400000088000000700000000000005f
:10287c00000000000070000000880000010400004f
:10288c0001040000010400000088000000000000aa
:10289c00000000000070000000880000010400002f
:1028ac0001040000110800001ffc000000040000df
:1028bc000000000000f8000001440000014400008a
:1028cc00014400000144000000c8000000000000aa
:1028dc000000000001040000010400000ffc0000d7
:1028ec001104000011040000110000001800000089
:1028fc000000000000d600000129000001290000a2
:10290c000129000001c900000106000000000000c0
:10291c00100400001ffc00000084000001000000f7
:10292c00010000000104000000fc00000004000095
:10293c0000000000010400001904000019fc000054
:10294c000004000000040000000000000000000073
:10295c000000000000030000000100000101000065
:10296c001901000019fe000000000000000000002a
:10297c00100400001ffc00000024000000400000b8
:10298c0001b40000010c0000010400000000000074
:10299c000000000010040000100400001ffc0000e8
:1029ac000004000000040000000000000000000013
:1029bc000104000001fc0000010400000100000003
:1029cc0001fc0000010400000100000000fc0000fc
:1029dc000104000001fc0000008400000100000064
:1029ec00010000000104000000fc000000040000d5
:1029fc000000000000f800000104000001040000c9
:102a0c00010400000104000000f8000000000000b8
:102a1c000101000001ff000000850000010400001e
:102a2c00010400000088000000700000000000009d
:102a3c00000000000070000000880000010400008d
:102a4c00010400000105000001ff0000000100006e
:102a5c00010400000104000001fc000000840000df
:102a6c0001040000010000000180000000000000d3
:102a7c000000000000cc0000012400000124000034
:102a8c000124000001240000019800000000000057
:102a9c0000000000010000000100000007f8000029
:102aac000104000001040000000000000000000010
:102abc000100000001f80000000400000004000008
:102acc00000400000108000001fc000000040000ec
:102adc00010000000180000001700000000c0000eb
:102aec0000100000016000000180000001000000e7
:102afc0001f00000010c00000030000001c00000db
:102b0c0000300000010c000001f00000010000008a
:102b1c000000000001040000018c000000740000a3
:102b2c0001700000018c0000010400000000000096
:102b3c00010100000181000001710000000e000085
:102b4c00001800000160000001800000010000007e
:102b5c000000000001840000010c000001340000a2
:102b6c000144000001840000010c00000000000082
:102b7c000000000000000000000000000000000049
:102b8c00010000003efc000040020000400200007a
:102b9c000000000000000000000000000000000029
:102bac00ffff00000000000000000000000000001b
:102bbc000000000040020000400200003efc00004b
:102bcc0001000000000000000000000000000000f8
:102bdc000000000060000000800000008000000089
:102bec004000000040000000200000002000000019
:102bfc0000000000000000000000000000000000c9
:102c0c0000000000000000000000000000000000b8
:102c1c0000000000000000000000000000000000a8
:102c2c000000000000000000000000000000000098
:102c3c000000000000000000000000000000000088
:102c4c000000000000000000000000000000000078
:102c5c000000000000000000000000000000000068
:102c6c000000000000000000000000000000000058
:102c7c000000000000000000000000000000000048
:102c8c000000000000000000000000000000000038
:102c9c000000000000000000000000000000000028
:102cac000000000000000000000000000000000018
:102cbc000000000000000000000000000000000008
:102ccc0000000000000000000000000000000000f8
:102cdc0000000000000000000000000000000000e8
:102cec0000000000000000000000000000000000d8
:102cfc0000000000000000000000000000000000c8
:102d0c0000000000000000000000000000000000b7
:102d1c0000000000000000000000000000000000a7
:102d2c000000000000000000000000000000000097
:102d3c000000000000000000000000000000000087
:102d4c000000000000000000000000000000000077
:102d5c0000000000000000000000000000800000e7
:102d6c008080000000800000800000000000000057
:102d7c000000000000000000000000000000000047
:102d8c000000000000000000000000000000000037
:102d9c000000000000000000000000000000000027
:102dac000000000080800000808000008080000017
:102dbc000000000000000000000000000000000007
:102dcc0000000000000000000000000000000000f7
:102ddc0000000000000000000000000000000000e7
:102dec0000000000000000000000000000000000d7
:102dfc0000000000000000000000000000000000c7
:102e0c0000000000000000007c86000082820000b0
:102e1c00c64c00000000000000fe0000060200008e
:102e2c0004fe0000040000000000000082fe000010
:102e3c00c280000080000000000000000082000042
:102e4c00fefe0000020000000000000082fe0000f8
:102e5c008280000082fe0000020000000061000081
:102e6c00ff14000094f40000e703000000000000d1
:102e7c000000000000000000000000000000000046
:102e8c000000000002fe000006020000000000002e
:102e9c000000000000820000fe02000000000000a4
:102eac0000000000e7fe000014940000f48700000e
:102ebc000000000000fe0000c280000080fe000048
:102ecc007e0000000000000000fe000086020000f2
:102edc0004000000000000000000000000000000e2
:102eec0000000000000000000000000000000000d6
:102efc0000000000000000000000000000000000c6
:102f0c0000000000000000000000000000000000b5
:102f1c0000000000000000000000000000000000a5
:102f2c000000000000000000000000000000000095
:102f3c000000000000000000000000000000000085
:102f4c000c0d00000000000000000000000000005c
:102f5c000000000000000000000000000000000065
:102f6c000001000001000000000000000000000053
:102f7c000000000000000000000000000000000045
:102f8c0000000000040f0000000000000000000022
:102f9c0000000000000c00000d000000000000000c
:102fac000000000000000000010100000000000013
:102fbc0000000000000f00000000000000000000f6
:102fcc0000000000000000000003000001000000f1
:102fdc0000000000000000000000000000000000e5
:102fec0000000000000000000000000000000000d5
:102ffc00000000000000000000100000f0f00000d5
:10300c0010000000000000000000000010f00000a4
:10301c00101000000000000000e00000f0100000a4
:10302c0010100000fc0000000000000000f0000088
:10303c001010000030f00000100000000000000034
:10304c0010f00000101000000000000000e0000074
:10305c00f010000010300000f01000000000000024
:10306c000000000000000000000000000000000054
:10307c0000e0000030100000103000006000000084
:10308c000000000010f00000101000000000000014
:10309c000000000004860000e4780000c00000007e
:1030ac00000000000000000030900000d0f0000094
:1030bc00200000000000000000f00000f0100000f4
:1030cc00100000000000000070d0000090b0000064
:1030dc00f0100000000000000000000010f00000e4
:1030ec00f0100000000000000000000000000000d4
:1030fc000000000000000000002000003f3f000026
:10310c000000000000000000000000000467000048
:10311c006000000000000000000100000704000037
:10312c00000400000700000000000000040700007d
:10313c000000000004070000000000000000000078
:10314c0004670000600000000000000000030000a5
:10315c0007040000202400007f0000000000000095
:10316c000000000000000000000000000000000053
:10317c00000300000404000004060000020000002c
:10318c000000000004070000070400000400000019
:10319c000000000004070000050000000506000008
:1031ac0004000000000000000701000004060000fd
:1031bc000000000000000000000f00001f000000d5
:1031cc0000000000000000000206000000050000e6
:1031dc00070000000000000000000000203f00007d
:1031ec003f00000000000000000000000000000094
:1031fc0000000000000000000000000000000000c3
:10320c0000000000000000000000000000000000b2
:10321c0000200000e02000000000000020e0000082
:10322c0020200000c0000000202000000000000052
:10323c000000000000f0000020200000c000000092
:10324c00e020000020e00000200000000020000032
:10325c00e02000000000000000e000002000000062
:10326c0000000000c06000002020000040000000b2
:10327c0020e0000000200000e000000018f8000032
:10328c00a0a800003000000000600000e02000005a
:10329c00000000000020000020c000000000000022
:1032ac000020000020600000c000000000e00000d2
:1032bc0020600000c000000000600000e020000062
:1032cc000000000000200000204000000000000072
:1032dc0000000000000000000000000000000000e2
:1032ec0000000000000000000000000000000000d2
:1032fc0000000000000000000000000000000000c2
:10330c0000000000000000000000000000000000b1
:10331c00000800000f08000000000000000f000073
:10332c000808000007000000020200000000000076
:10333c000000000000030000020200000300000077
:10334c000102000002030000000000000000000069
:10335c001b00000000000000020f00001210000013
:10336c000800000001030000010300000100000040
:10337c000203000002020000010000000103000033
:10338c00020300000200000000080000110f000002
:10339c0000000000000e00000a0b000000000000fe
:1033ac0000100000121f00000100000000070000c8
:1033bc000a1300000100000000080000110f0000bb
:1033cc0000000000000e00000a0b000000000000ce
:1033dc0000000000000000000000000000000000e1
:1033ec0000000000000000000000000000000000d1
:020000040000fa
:1033fc000400fa0020479800314798003e409000a6
:10340c000004e00002003200ca42a80001003700ac
:10341c00ca42a900ca22a9000040eb00004f780064
:10342c000c003700cb02a9002e4090000004e000f5
:10343c0002003d00cae2a80001003700cae2a90060
:10344c00cb02a8002e40900000404000204798007e
:10345c001e4fe8001e407800e74f5000f1ff360089
:10346c00ca22a800ca42a8000080fa000000060088
:10347c000200fa00004f7800114798009e4090001f
:10348c0000cbb30000c040008040eb00d8ff070029
:10349c001e80fb004400de00004078000044a000c9
:1034ac008040eb00d2ff07001e4078006e406000a9
:1034bc000004a0008040eb00cdff07000080fa0064
:1034cc00000006000000fa008040eb00d0c8b300fa
:1034dc00c7ff07008040eb0040c1b300c4ff0700ea
:1034ec008040eb00f0cab300c1ff07000080fa0077
:1034fc00000006000000fa008040eb00d0c8b300ca
:10350c00bbff07008040eb0000c1b300b8ff070011
:10351c008040eb00e0cab300b5ff07000080fa0062
:10352c00000006000200fa000040eb00004f78009b
:10353c001700370000cbb3001e4040008040eb006a
:10354c00abff07008040eb000040eb00a8ff07003a
:10355c008040eb0000c1b300a5ff07000040eb006a
:10356c00104798000600370011c0b3000040eb0074
:10357c009fff07001e4090000040e8001047980095
:10358c001e4090000004e000f7ff3d001e4fe800d5
:10359c001e407800e74f5000e6ff36000080fa002e
:1035ac00000006000600fa002047980031479800fa
:1035bc00424798003e4090000040400071cbb30061
:1035cc0000c050008040eb0089ff07002e409000a7
:1035dc000080fb0061006000004078000004e00007
:1035ec00040032008040eb0080c0b30080ff070075
:1035fc00030037008040eb000040eb007cff07002d
:10360c002e4090000080fb000000d10000407800ac
:10361c00704040008040eb0075ff07000040eb005d
:10362c00004f78000b003700e10029004e4090005d
:10363c000080fb004401dd001e80fb000000410007
:10364c00008040001040780011c0b30068ff0700f4
:10365c001ecfe8001e407800ef4f5000f2ff3600fe
:10366c003e4090000040400061cbb30000c05000d1
:10367c008040eb005eff07002e4090000080fb00b6
:10368c0061006000004078000004e000040032009b
:10369c008040eb0080c0b30055ff070003003700eb
:1036ac008040eb000040eb0051ff07002e409000e3
:1036bc000080fb000000d10000407800704040000a
:1036cc008040eb004aff070010c0b300004f7800a9
:1036dc000b003700e10029004e4090000080fb00f9
:1036ec004401dd001e80fb00000041000080400012
:1036fc001040780011c0b3003dff07001ecfe8005a
:10370c001e407800ef4f5000f2ff36000080fa00a8
:10371c00000006000200fa000040eb00004f7800a9
:10372c001d00370000cbb3001e4040008040eb0072
:10373c002fff07008040eb000040eb002cff070040
:10374c008040eb0000c1b30029ff07000040eb00f4
:10375c00104798000c0037001e80fb00c700dd00ee
:10376c001e4090000080fb0000804000e15f2900bb
:10377c006140780011c0b3001dff07001e4090008f
:10378c000040e800104798001e4090000004e00044
:10379c00f1ff3d001e4fe8001e407800e74f50003f
:1037ac00e0ff36000080fa00000006000000fa007e
:1037bc00c6c2a900c702a900c6e2a900c622a90078
:1037cc00c642a900cac2a800400620003301070067
:1037dc00cac2a9004006200030010700cac2a800d6
:1037ec008040eb00e0cab30001ff07008040eb0013
:1037fc000040eb00fefe07008040eb0000c1b30070
:10380c00fbfe07008040eb0000c4b300f8fe07008d
:10381c008040eb0010c8b300f5fe07008040eb00c1
:10382c00f0ccb300f2fe07008040eb0010cab300ee
:10383c00effe07008040eb0000ccb300ecfe07006d
:10384c008040eb0060cab300e9fe07008040eb004b
:10385c0080cab300e6fe07008040eb00f0c3b30063
:10386c00e3fe07008040eb0030cdb300e0fe070024
:10387c008040eb000040eb00ddfe07008040eb00d9
:10388c0050cdb300dafe07008040eb0000c8b30057
:10389c00d7fe07008040eb0090cdb300d4fe0700ac
:1038ac008040eb0010cfb300d1fe07008040eb004e
:1038bc00a0cdb300cefe07008040eb0020c1b300ca
:1038cc00cbfe07008040eb00b0cdb300c8fe070074
:1038dc008040eb0000c4b300c5fe07008040eb0045
:1038ec0000c2b300c2fe07008040eb0020c0b30052
:1038fc00bffe07008040eb00d0c8b300bcfe070041
:10390c008040eb0040c1b300b9fe07008040eb00e3
:10391c0040cab300b6fe07008040eb0060cab3009b
:10392c00b3fe07008040eb00f0cab300b0fe070006
:10393c008040eb00f0cab300adfe0700f9fe0700b3
:10394c008040eb000040eb00c9fe07000080fa004d
:10395c00000006000600fa00200798000000eb00ab
:10396c00000f78000b0037000000eb0010079800e8
:10397c00030037001e0090000000e80010079800bc
:10398c009e009000f07c2000808f5000f9ff3600e4
:10399c001e0fe8002e0090009e007800808f5000d3
:1039ac00f1ff39000080fa00000006000000fa0068
:1039bc000600370000000000113a800000022000d1
:1039cc00008060000000e000fbff3200113a800034
:1039dc00000023008080600000002300808f5000d6
:1039ec00f4ff3a000080fa00000006000000fa0024
:1039fc00c821ef00d822ef00da22ef000080fa0095
:103a0c00000006000200fa00e8ff0700f7ff0700bd
:103a1c0066ff0700c3fe070010c2b30010479800f2
:103a2c00090037001e41900011c0b30010c0b30054
:103a3c00dcfe0700401f2000c6ff07001e40900060
:103a4c000040e800104798009e409000a0c3b300cf
:103a5c0080cf5000f3ff360010c4b300104798001d
:103a6c00090037001e41900011c0b30030c0b300f4
:103a7c00ccfe0700401f2000b6ff07001e40900040
:103a8c000040e800104798009e409000a0c5b3008d
:103a9c0080cf5000f3ff360010c0b30010479800e1
:103aac00090037001e41900011c0b30050c0b30094
:103abc00bcfe0700401f2000a6ff07001e40900020
:103acc000040e800104798001e409000e94f50005d
:103adc00f4ff360072c1b30021c0b30020c0b300a4
:103aec00b0fe070082c1b30021c0b30030c0b300e8
:103afc00acfe070092c1b30021c0b30040c0b300bc
:103b0c00a8fe0700a2c1b30021c0b30050c0b3008f
:103b1c00a4fe0700b2c1b30021c0b30060c0b30063
:103b2c00a0fe0700c2c1b30021c0b30070c0b30037
:103b3c009cfe0700d2c1b30021c0b30080c0b3000b
:103b4c0098fe0700e2c1b30021c0b30090c0b300df
:103b5c0094fe0700f2c1b30021c0b300a0c0b300b3
:103b6c0090fe070002c2b30021c0b300b0c0b30086
:103b7c008cfe0700b2c0b30031c0b30030c0b3003c
:103b8c0088fe0700c2c0b30031c0b30040c0b30010
:103b9c0084fe0700d2c0b30031c0b30050c0b300e4
:103bac0080fe0700e2c0b30031c0b30060c0b300b8
:103bbc007cfe0700f2c0b30031c0b30070c0b3008c
:103bcc0078fe070002c1b30031c0b30080c0b3005f
:103bdc0074fe070012c1b30031c0b30090c0b30033
:103bec0070fe070022c1b30031c0b300a0c0b30007
:103bfc006cfe070032c1b30031c0b300b0c0b300db
:103c0c0068fe070042c1b30031c0b300c0c0b300ae
:103c1c0064fe070052c1b30031c0b300d0c0b30082
:103c2c0060fe070062c1b30031c0b300e0c0b30056
:103c3c005cfe0700c2c3b3008040eb0030c0b30091
:103c4c0058fe0700d2c3b3008040eb0030c0b30075
:103c5c0054fe0700e2c3b3008040eb0040c0b30049
:103c6c0050fe0700f2c3b3008040eb0050c0b3001d
:103c7c004cfe070002c4b3008040eb0060c0b300f0
:103c8c0048fe07001e4fe8001e80fb00d01688007f
:103c9c00803e20002fff0700faff37000400fa00d7
:103cac00100798000f00370080702000000f78007c
:103cbc00000000001e00780000f0a7000000ea00e1
:103ccc000000ea004f00de00004078001e0fe90003
:103cdc000004e000f7ff3a001e0090000000e9002d
:103cec00100798001e0090000000e000eeff3a0064
:083cfc000080fa000000060040
:020000040000fa
:103d040000080000020000000000000000000000a5
:020000040000fa
:0200000401f009
:0400000007c3000032
:020000040000fa
:0200000401f009
:0400040000000000f8
:020000040000fa
:0200000401f009
:04000800a2830000cf
:020000040000fa
:0200000401f009
:04001400ffff0000ea
:00000001FF
