:020000040000FA
:1000000000000D288207C034F934A434B034993488
:1000100092348234F834803490345D2013201E20D2
:100020002E2079201028061086128E30A700861602
:100030003E200030A7003E2086120800BE30A700F8
:1000400086163E20203084000830AA000008A70051
:100050003E20840AAA0B262886120800BF30A7007B
:1000600086163E20203084000730AA004A20280847
:100070008000840AAA0B3628861208000830A900DE
:100080000612061027180616A70C0614A90B4028FE
:10009000061008008316061683120830A900061001
:1000A0000310061A0314A80C0614A90B4F28831674
:1000B0000612831206100800000083160030850027
:1000C000880006309F000230860081018312FF30D5
:1000D000850088000830A0005830A1000530A2003B
:1000E0001330A3001030A4000630A5005530A60040
:1000F0000800861C82282008B0002108B1002208D0
:10010000B20088282308B0002408B1002608B200F5
:10011000320E0F39022088000510B4200514320871
:100120000F390220880088138510B4208514310E01
:100130000F39022088000511B420051531080F3948
:100140000220880088138511B4208515300E0F39E0
:10015000022088000512B420051630080F3902204D
:1001600088008512B42085163F30C000C00BB62829
:02017000080085
:02400E00321866
:00000001FF
