:020000040000FA
:1000000000000A288207C034F934A434B0348334A1
:1000100088348E34FF308800831603130F30850038
:10002000860088018316031306309F008301063083
:10003000A000A100061824287720061824280430E0
:10004000A0000030A1006A2886182E287720861884
:100050002E280430A0000130A1006A280619382893
:100060007720061938280430A0000230A1006A2841
:10007000861942287720861942280430A0000330D0
:10008000A1006A2805184C28772005184C2805304F
:10009000A0000030A1006A2885185628772085180E
:1000A00056280530A0000130A1006A2805196028F3
:1000B0007720051960280530A0000230A1006A28C9
:1000C00085196A28772085196A280530A000033031
:1000D000A1006A2820080220880005127720051652
:1000E0002108022088008512772085161728FF3006
:0800F000B000B00B79280800F4
:02400E00321866
:00000001FF
