:020000040000FA
:0400000000001928BB
:020008000800EE
:100010008207C034F934A434B03499349234823431
:10002000F834803498340034003400340034003420
:100030000034FF308700FF308500FF3086008316D4
:1000400007309F000301860085008700810083122E
:1000500003013720A300093C03182F28A30123081C
:10006000082087008510A30A03015C203628A10020
:100070006620A0307420210874206620A1307420EE
:100080008316861683120830A000000000000000CE
:10009000061600000314861E0310A40D0612A00B02
:1000A000452883168612831286168F2006168F2007
:1000B00006126D2024080800A1006620A0307420DC
:1000C00021087420230874206D2008008616061667
:1000D0008F2086128F200612080086120000000072
:1000E00006168F2086160800A4000830A000A40D74
:1000F0008616031C8612000006168F200612A00B1F
:1001000077288616000000000616831686168312CE
:10011000861A8828061283168612831208000000A9
:080120000000000000000800CF
:02400E00313946
:00000001FF
