:020000040000FA
:1000000001288501860187018316031300308500CE
:100010008600870007309F00830101308500522051
:10002000522052205220023085005220522052206D
:100030005220043085005220522052205220083095
:10004000850052205220522052201030850052202C
:10005000522052205220203085005220522052201F
:100060005220850186010830A0000314860D52201D
:100070005220522052200310A00B362886018701FF
:1000800007145220522052205220073090000310B3
:10009000870D52205220522052200310900B4828E6
:1000A00087010128FF309100FF309200920B562803
:0600B000910B55280034FD
:02400E003A1F57
:00000001FF
