:10000000830100308A00042883010A128A11F42F28
:100010008207543445344C34303437343534353435
:100020002D34323438343134383437343934373489
:100030003534820720345734573457342E345034F3
:1000400049344334313436342E3443344F344D3410
:040050002034203404
:100EFE008301A301A401A30A0319A40A2408803ABA
:100F0E00F000933070028830031923020318080092
:100F1E00822F8301A20088008514051185117F2779
:100F2E00851508008301A001A10100308A00200868
:100F3E0019200A128A1190270A128A11A00A03197F
:100F4E00A10A2108803AF000803070021030031997
:100F5E002002031808009C2F8301A001A10100307C
:100F6E008A00200808200A128A1190270A128A1174
:100F7E00A00A0319A10A2108803AF00080307002FD
:100F8E0010300319200203180800B62F83018510B4
:100F9E00051185117F278515080001308301880012
:100FAE00CD270A128A1138308800CD270A128A11ED
:100FBE000E308800CD270A128A1106308800CD2700
:100FCE000A128A1180308800CD2F07308316031342
:100FDE009F008501880183120800EC27D4270A128E
:100FEE008A119927C0308800CD270A128A11B3279B
:020FFE00F42FCE
:02400E00321866
:00000001FF
