:08000000A001A101A201AD2F36
:100F5A00B127CE2783010028831603138501870151
:100F6A0086018312080088308301A1001330A20091
:100F7A0000000000A1080319A203A1032208803A75
:100F8A00F00080307002013003192102031C0800AE
:100F9A00BD2F0130830185000330A000B827B82790
:100FAA00B8270310850DA00BD32F1030850002300F
:100FBA00A000B827B827B8270310850DA00BDE2F8D
:100FCA008501103086000430A000B827B827B8275A
:100FDA000310860DA00BEA2F4030860001308700EF
:100FEA000830A000B827B827B8270310870DA00B30
:060FFA00F72F8701CE2F46
:02400E00F43389
:00000001FF
