:020000040000FA
:0400000000001028C4
:0800080009008207C034F9343D
:10001000A434B034993492348234F8348034903437
:10002000850186018316031385018801013086004E
:1000300006309F00013081008312A201A301A401B8
:100040000830A600383084008001840AA60B2428DA
:10005000061845281421061845284820CC30A2004F
:100060006B204430A2006B2083011B21000048203C
:10007000CC30A2006B20BE30A2006B20862022086C
:10008000A30086202208A4004820A520EA202828D2
:1000900083160313051083120510A030A600A60BCB
:1000A0004F2805141430A600A60B542883160313FA
:1000B00005158312051848280430A600A60B5E28F3
:1000C000051848284B30A600A60B64288316031396
:1000D0000510831208000830A600831603130510CC
:1000E0008312031005140530A7000510A70B76280E
:1000F000A20C031C7D2805147E2805100F30A700D4
:10010000A70B80280514A60B722808000830A6004B
:10011000831603130510831205100130A700A70BE7
:100120008F28051483160313051483120230A700C9
:10013000A70B98280314051C0310A20C1230A7006B
:10014000A70BA028A60B8828080007302405BA00B2
:10015000BA0E2308A500F030A505250EBA046430B8
:100160003A02031CB728BA000130B800B828B80119
:10017000B9010A30BA02031CBF28B90AB9280A30EB
:10018000BA072E30BB00BC01BD01BE01BF01231C5C
:10019000CF280530BF000230BE000630BD00A31CD2
:1001A000D7280530BE070230BD070130BC00231D33
:1001B000E5280530BD070A30BD02031CE128BC0A52
:1001C000E3280A30BD070230BC07A31DE92805302B
:1001D000BC07080083160313850183013908052035
:1001E00088000510142105143A080520880088139A
:1001F0008510142185143C08052088000511142160
:1002000005153D08052088008511142185153E0837
:10021000052088000512142105163F0805208800D6
:100220008512142185160800152916291729182961
:1002300019291A2908000430A100FA30A0000A3058
:1002400081000B1D21290B11A00B1F29A10B1D29BA
:020250000800A4
:02400E00321866
:00000001FF
