:10000000830100308A000428203084002B300F2028
:1000100083010A128A11F52F04068001840A04065E
:10002000031D0C2800348207C034F934A434B034E2
:10003000993492348234F834803490348834833460
:0E004000C634A13486348E34820756347834A8
:100E360064308301A800A901A8080319A903A8031F
:100E46002908803AF0008030700201300319280228
:100E5600031C08001F2F83012208F039A600A701F2
:100E66000430F000270DA70CA60CF00B352F003030
:100E76008A002608132088003E3085000A128A114F
:100E86001B2722080F39A600A70100308A00260872
:100E9600132088003D3085000A128A111B2723087B
:100EA600F039A600A7010430F000270DA70CA60C08
:100EB600F00B582F00308A002608132088003B309C
:100EC60085000A128A111B2723080F39A600A701DD
:100ED60000308A00260813208800373085000A1261
:100EE6008A111B2F8301AA002A0893008C1D792FD3
:100EF6008C111308A000A10108008301071500004A
:100F060000000130752785307527A601A70100303E
:100F160075272608223E8400831320088000A60A2F
:100F26000319A70A2708803AF000803070020230C1
:100F360003192602031C8A2F00000711000008006F
:100F4600830107150130752730307527071100001A
:100F560000000800A3270A128A1107150130752719
:100F660045307527A801A90100308A0028082420E9
:100F7600A600A7010A128A117527A80A0319A90A49
:100F86002908803AF00080307002023003192802E6
:100F9600031CB72F07110000000007150000000012
:100FA600071ED32F071100000000903088003E3046
:100FB600850008000730831603139F003030850034
:100FC60003308600103087008801FF3083128800C6
:100FD6008030831694003130831294008B018C018B
:100FE60007110800DD270618F92FAD278618F62FFA
:0A0FF60080272E270A128A11FC2F13
:02400E00321866
:00000001FF
