:020000040000FA
:1000000000008316031387018501860183018501A2
:1000100001308500512051200230850051205120AF
:10002000043085005120512010308500512051208E
:100030002030850051205120850186011030860036
:100040005120512020308600512051204030860020
:100050005120512080308600512051208601870197
:10006000013087005120512002308700512051205B
:100070000430870051205120083087005120512042
:10008000103087005120512020308700512051200E
:10009000403087005120512080308700512051206E
:1000A0000728FF30A100FF30A200A20B5528A10BAA
:0400B00054280800C8
:02400E00F43389
:00000001FF
