:10000000830100308A000428203084002D300F2026
:1000100083010A128A118F2F04068001840A0406C4
:10002000031D0C2800348207C034F934A434B034E2
:10003000993492348234F834803490348834833460
:0E004000C634A13486348E3482075A34A53477
:100DE00064308301AB00AC01AB080319AC03AB0367
:100DF0002C08803AF00080307002013003192B0279
:100E0000031C0800F42E8301A800A000A901AA0178
:100E1000A01F0C2F06160D2F06128615F026861120
:100E20000310A00D2008A000A101A90A0319AA0A15
:100E30002A08803AF0008030700208300319290235
:100E4000031C082F000008008301061500000000A5
:100E50000130032785300327A601A7019A2726081A
:100E6000223E8400831320088000A60A0319A70AE3
:100E70002708803AF0008030700202300319260201
:100E8000031C2E2F00000611000008008301061528
:100E9000013003273030032706110000000008004E
:100EA00046270A128A110615013003274530032709
:100EB000A601A70100308A00260824200A128A1100
:100EC0000327A60A0319A70A2708803AF0008030F2
:100ED0007002023003192602031C5A2F061100006B
:100EE0000000061500000000861E742F0611000089
:100EF0000000903088003E308500080007308316DF
:100F000003139F0030308500233086008801FF30B6
:100F100083128800831681138312061108007E272E
:100F20000618932F50278618902F2427B9270A12C6
:100F30008A11962F8301A801A9018615F026861132
:100F4000F0260310A00D861EA72F2014A82F201016
:100F50002008A000A101A80A0319A90A2908803ABB
:100F6000F0008030700207300319280203180800CF
:100F70009D2F83012208F039A600A7010430F0005C
:100F8000270DA70CA60CF00BC02F00308A002608F6
:100F9000132088003E3085000A128A11F0262208AC
:100FA0000F39A600A70100308A0026081320880008
:100FB0003D3085000A128A11F0262308F039A60078
:100FC000A7010430F000270DA70CA60CF00BE32FAF
:100FD00000308A002608132088003B3085000A1262
:100FE0008A11F02623080F39A600A70100308A00D5
:100FF000260813208800373085000A128A11F02E47
:00000001FF
