:0C000000830100308A0004288301B82B23
:100770008312BC23D92304288316850187010730FF
:1007800083129900080088308312A1001330A20060
:1007900000000000A1080319A203A1032208803A67
:1007A000A30080302302013003192102031C08003A
:1007B000C82B0130831285000330A0008312C323AD
:1007C000C323C3230310850DA00BDE2B103085003F
:1007D0000230A000C323C323C3230310850DA00B45
:1007E000EA2B8501013087000630A000C323C32314
:0E07F000C3230310870DA00BF62B8701D92B16
:02400E00B431CB
:00000001FF
