:020000040000FA
:0400000000001928BB
:020008000900ED
:100010008207C034F934A434B03499349234823431
:10002000F8348034903488348334C634A134863430
:100030008E348801FF308500831607309F00C23060
:10004000850088018312A501A601A701A801851CCE
:100050002B289F202728851827280430A100A201DB
:10006000A001322800008518A20A851CA201A2194D
:100070003E28A00B3128A10B31282728033021026C
:10008000031827280330A100A201A001472800007F
:10009000851CA20A8518A201A2195328A00B462884
:1000A000A10B4628272803302102031827282030D7
:1000B000A200A301AA30A0003830A1005F280000F0
:1000C0008518A30A851CA30123196928A00F5E289F
:1000D0002728A3016B280000851CA30A8518A3010B
:1000E000A3197528A10F6A282728AA30A002383042
:1000F000A1022108A0070318272846302002031C6C
:1001000027288230200203188728A4139028A030C3
:100110002002031C2728E630200203182728A417F2
:10012000A50CA60CA70CA80CA513A41BA517A20B25
:10013000592825092606031D27289F2027288316CE
:10014000031385018301280E0F390820880005104C
:10015000D32005140F302805082088008510D320EF
:100160008514270E0F39082088000511D3200515A6
:100170000F302705082088008511D3208515260E0D
:100180000F39082088000512D32005160F302605E8
:10019000082088008512D320851683160313C230E9
:1001A0008500830108000130B000FF30B100B10BC1
:0801B000D728B00BD528080088
:02400E00321866
:00000001FF
