:020000040000FA
:0400000000002A28AA
:10001000820720345734573457342E3450344934FF
:100020004334313436342E3443344F344D34003479
:100030008207543445344C34303437343534353415
:100040002D3438343334363434343334393438346A
:1000500030340034831607309F000030850088005C
:1000600083126B20013088006620383088006620BB
:100070000E308800662006308800662080308800B8
:1000800066204720C0308800662054202A28A4011A
:1000900024080820A500A40A2508003A03195328BB
:1000A00025085F2048280800A40124081820A5007E
:1000B0005F20A40A2508003A031D5528080088007F
:1000C0008514051185116B20851508008510051113
:1000D00085116B208515FF30A000FF30A100A10B1A
:0800E0006F28A00B6D28080039
:02400E00321866
:00000001FF
