:10000000830100308A0004282030840026300F202D
:1000100083010A128A11F62F04068001840A04065D
:06002000031D0C28003452
:100E5E008301A4010130A50024080319A503A403EE
:100E6E00240A0319250A03190800332FB32F8830DB
:100E7E0088002F3085002F27C03088001F30850056
:100E8E002F2F883088002F3085002F27F9308800CB
:100E9E001F3085002F2F883088002F3085002F2798
:100EAE00A43088001F3085002F2F883088002F3007
:100EBE0085002F27B03088001F3085002F2F8330FC
:100ECE0088002F3085002F27C03088001F30850006
:100EDE002F2F833088002F3085002F27F930880080
:100EEE001F3085002F2F833088002F3085002F274D
:100EFE00A43088001F3085002F2F833088002F30BC
:100F0E0085002F27B03088001F3085002F2F7208E4
:100F1E0003193E2F013A0319482F033A0319522F92
:100F2E00013A03195C2F073A0319662F013A031988
:100F3E00702F033A03197A2F013A0319842F0F3AAF
:100F4E00031D08008E3088002F3085002F278E302D
:100F5E0088001F3085002F2F831203132308F30000
:100F6E002208F2007308031D08008E2F083083013B
:100F7E00A000A1010518C52FA001A1018518CA2F37
:100F8E00A001A00AA1010519CF2F0230A000A101D6
:100F9E008519D42F0330A000A1010618D92F0430D3
:100FAE00A000A1018618DE2F0530A000A1010619B0
:100FBE00E32F0630A000A101861908000730A0001B
:100FCE00A10108000730831603139F000F30850020
:100FDE0086008801FF308312850088000800E9270B
:100FEE00BD272008A2002108A3003D270A128A115E
:020FFE00F62FCC
:02400E00321866
:00000001FF
