:020000040000FA
:0400000000001E28B6
:10001000820701340234043408341034203440346C
:100020008034A3008614061606158D2006118D2037
:10003000230882075A2862286A286D280030870022
:10004000203086008316203086000301870081005F
:100050008312A101A0010430A20002301120210866
:100060000820A700A10A21080820A60001301120BD
:1000700003301120A10AA00A9220A20B2D283030B3
:100080008400A0010430A200003011202708800065
:10009000840A26088000A00A840AA20B442808309B
:1000A000A20030308400000887009220840AA20B4E
:1000B00053284F288030200771207F20A7007F2001
:1000C000A6006F28403020077120270871202608DD
:1000D00071206F28303071206F2803017120861045
:1000E0000800A4000830A500A40D0616031C061283
:1000F00006158D2006118D20A50B742808000830E8
:10010000A50006158D2006118D200314861E0310F0
:10011000A40DA50B8128240808001F30A900A90BF5
:100120008F2808001430A6002830A700F830A80057
:0E013000A80B9828A70B9628A60B9428080069
:02400E00321866
:00000001FF
