:10000000830100308A0004282030840026300F202D
:1000100083010A128A11F62F04068001840A04065D
:06002000031D0C28003452
:100D50008301A4010130A50024080319A503A403FD
:100D6000240A0319250A03190800AC2E952FF9301F
:100D700088002F308500A826C03088001F308500ED
:100D8000A82EF93088002F308500A826F930880079
:100D90001F308500A82EF93088002F308500A82646
:100DA000A43088001F308500A82EF93088002F302D
:100DB0008500A826B03088001F308500A82EF930A5
:100DC00088002F308500A826993088001F308500C4
:100DD000A82EF93088002F308500A8269230880090
:100DE0001F308500A82EF93088002F308500A826F6
:100DF000823088001F308500A82EF93088002F30FF
:100E00008500A826F83088001F308500A82EF9300C
:100E100088002F308500A826803088001F3085008C
:100E2000A82EF93088002F308500A8269030880041
:100E30001F308500A82EA43088002F308500A826FA
:100E4000C03088001F308500A82EA43088002F30C5
:100E50008500A826F93088001F308500A82EA43010
:100E600088002F308500A826A43088001F30850018
:100E7000A82EA43088002F308500A826B030880026
:100E80001F308500A82EA43088002F308500A826AA
:100E9000993088001F308500A82EA43088002F309C
:100EA0008500A826923088001F308500A82E720881
:100EB000773A03192F2F0C3A0319392F063A0319E1
:100EC000432F033A03194D2FC93A0319072F0C3A40
:100ED0000319112F063A03191B2F033A0319252F63
:100EE000693A0319DF2E0C3A0319E92E063A031961
:100EF000F32E033A0319FD2E393A0319B72E0C3A93
:100F00000319C12E063A0319CB2E033A0319D52E25
:100F1000113A031D08008E3088002F308500A82666
:100F20008E3088001F308500A82E831203132108FD
:100F3000F3002008F2007308031D0800572FF73054
:100F40008301870000000708A000A101F030A00580
:100F5000A1012008F03A21040319B12F0730A004A1
:100F60000800FB30870000000708A000A101F03056
:100F7000A005A1012008F03A21040319C22F0B306B
:100F8000A0040800FD30870000000708A000A101B0
:100F9000F030A005A1012008F03A21040319D32F55
:100FA0000D30A0040800FE30870000000708A000F4
:100FB000A101F030A005A1012008F03A2104031995
:100FC000E42F0E30A0040800FF30A000A1010800AB
:100FD0000730831603139F000F308500F030870021
:100FE0008801FF308312850088000800E8279F27CA
:100FF0002008A2002108A300B6260A128A11F62FA3
:02400E00321866
:00000001FF
